:100000000C9427020C945F020C945F020C945F0224
:100010000C945F020C945F020C945F020C945F02DC
:100020000C945F020C945F020C94300F0C94720ECF
:100030000C9448100C945F020C945F020C945F02C5
:100040000C945F020C945F020C945F020C945F02AC
:100050000C945F020C9407100C945F020C945F02E6
:100060000C945F020C945F020C945F020C945F028C
:100070000C945F020C945F020C945F020C945F027C
:100080000C945F020C945F020C945F020C945F026C
:100090000C945F020C945F020C945F020C945F025C
:1000A0000C945F020C945F020C945F0221082708F5
:1000B00015081B082D0833083908EE08EE082C0A2D
:1000C0002C0A29092C0A2C0A2C0A4509DD09EF09FA
:1000D000EF09910CB80C500EB80C500E000D230D0A
:1000E000500E120E250E167C1E001F00200021004F
:1000F0002200230024002500260027002D002E00CA
:100100002A002B0014001A000800150017001C001C
:1001100018000C00120013002F0030003100407E48
:1001200004001600070009000A000B000D000E0075
:100130000F003300340000002800E10000001D0023
:100140001B000600190005001100100036003700E2
:1001500038000000E500E000E200E30000000000DD
:100160002C0000000000000000000000E700E60096
:10017000E400010001000100010001000100010094
:100180000100010001000100010001000100010067
:100190000100010001000100010001000100010057
:1001A0000100010001000100010001000100010047
:1001B0000100010001000100010001000100010037
:1001C0000100000001000100000001000100010029
:1001D0000100010001000100010001000100000018
:1001E00052000100010001000000000001000000B9
:1001F0000000000000000000500051004F003500DA
:100200003A003B003C003D003E003F004000410002
:1002100042004300440045004C0001000000000083
:100220000000000000000000000000000000460088
:100230004A004D0049000100417E1601427E000047
:1002400000005000510052004F0000004B00000021
:100250000100010000000000000039000000000063
:1002600000006500470048004E000000010001004A
:10027000010001000000000001000000000000007B
:100280000000000001000100010001000100010068
:100290000100010001000100010001000100A800AF
:1002A000AA00A900010001000100010001000100F5
:1002B00001000100010001000100AE00AC00AB0034
:1002C0000100010001000100010001000100010026
:1002D0000100010001000100010000000100010017
:1002E0000000010001000100010001000100010007
:1002F00001000100010000000100010001000100F7
:1003000000000000010000000000000000000000EC
:1003100001000100010005010980A1018503190107
:100320002AB700150126B700950175108100C00598
:100330000C0901A101850419012AA002150126A0BA
:1003400002950175108100C005010906A10185060D
:10035000050719E029E715002501950875018102B7
:100360000507190029EF1500250195F07501810297
:100370000508190129059505750191029501750377
:100380009101C005010906A101050719E029E7153A
:100390000025019508750181029501750881010507
:1003A00007190029FF150026FF0095067508810032
:1003B000050819012905150025019505750191020A
:1003C000950175039101C009023B00020100A0FAEA
:1003D00009040000010301010009211101000122AB
:1003E000440007058103080001090401000103001E
:1003F0000000092111010001226D00070582032080
:100400000001120100020000000835430200030051
:1004100001020001180347004800360030002000A8
:10042000520065007600430048004E0000001A03A9
:1004300051004D004B0020004600690072006D0025
:1004400077006100720065000000040309041124B4
:100450001FBECFEFDAE0DEBFCDBF04B603FE18C08B
:100460008091240290912502A0912602B09127024A
:100470008730904BA740B04B59F410922402109251
:1004800025021092260210922702E0E0F8E3099577
:1004900011E0A0E0B1E0ECE7F8E202C005900D92B7
:1004A000A835B107D9F722E0A8E5B1E001C01D9257
:1004B000A432B207E1F70E94B1110C943C140C94E1
:1004C000000080E008959091210292FF10C041E069
:1004D000282F2471243009F040E031E0282F2871C2
:1004E000283009F030E0431711F02CE0822793FF09
:1004F00010C041E0282F2471243109F040E031E0A0
:10050000282F2871283109F030E0431711F02CE032
:1005100082273091220230FF10C051E0282F217134
:10052000213009F050E041E0282F2871283009F0EF
:1005300040E0541711F029E0822731FF10C041E05C
:10054000282F2171213109F040E031E0282F287156
:10055000283109F030E0431711F029E0822794FD9B
:10056000877E08958238910569F1B0F48133910551
:1005700009F475C048F48932910509F467C08A32DC
:10058000910509F471C008958533910509F459C0A6
:1005900089339105B9F00895833E910589F138F4C6
:1005A000803E9105D1F0823E910529F10895863E65
:1005B0009105C9F1873E9105D9F1843E910509F075
:1005C0006CC027C02091210220FD57C021FD55C0DD
:1005D0002091220223FD5BC008958091210280FDBD
:1005E00048C08091220280FF48C08091210284FD92
:1005F00046C083EE51C08091210282FF3CC0F5CFFE
:100600008091210282FD37C08091220280FD35C099
:10061000ECCF8091220281FF36C08091210284FDBF
:100620002EC087EE39C08091210283FF2AC0F5CF0A
:100630008091210283FD25C08091220281FD23C08B
:10064000ECCF8091210285FD22C01FC08091210244
:1006500085FD1BC08091220283FF19C00AC08091D2
:10066000210286FD16C017C08091210286FD13C0AD
:1006700010C089E311C082EE0FC080EE0DC080E093
:100680000BC086EE09C084EE07C085E305C089E291
:1006900003C08AE201C081E390E008957530B0F4B0
:1006A0006E30A0F48430A0F496E4899FF001112408
:1006B0008EE0789FE00DF11D1124E60FF11DEE0F85
:1006C000FF1FEA51FF4F85919491089580E001C08A
:1006D00081E090E008951F93CF93DF930E94B202D0
:1006E000EC0181159045E8F5C11580E4D80708F0C4
:1006F000F8C0C03ED10530F5CD3CD10508F0A4C00E
:10070000C83AD10578F4C53AD10508F093C0C13094
:10071000D10509F48CC008F4E9C0C430D10508F053
:10072000E8C0E4C0C33CD10508F0E0C0C85AD0E03E
:10073000CC0FDD1FC25FDE4F0990D881C02DCE01E6
:100740009464D8C0C11590E2D90708F0CAC0C11599
:1007500061E0D60708F07BC0C83ED10508F4C9C0E7
:10076000C5C0C03682E5D80728F5C03492E5D90760
:1007700008F080C0C03262E5D60708F073C0C1152A
:1007800082E5D80708F488C04C2F4695469560E26C
:10079000469FA0011124C37021E030E0C90102C0CE
:1007A000880F991FCA95E2F7EA01C82BD92BCE0111
:1007B0009D68A0C0C03C92E5D907E0F4C03A62E56C
:1007C000D60708F084C0C03882E5D80708F08EC08C
:1007D0008C2F8F718695869560E2869F90011124FB
:1007E000C37081E090E002C0880F991FCA95E2F7BC
:1007F0009A686AC0C03E92E5D90708F077C0AE019A
:1008000033E0440F551F3A95E1F7407E5527C370FA
:10081000DD2721E030E0C90102C0880F991FCA9589
:10082000E2F7EA01C82BD92BCE019A6863C081E0B8
:1008300090E060C0C55AD0E0C55FDE4F8881C82F08
:10084000D0E0CE01906456C0CE01906553C08D2F8C
:100850000E946302182FCE0199270E94B2021F71D5
:10086000912B48C0CF71D0E0DC2FCC27CE01816F17
:10087000906A40C08C2F8F718695869590E2899FF3
:1008800090011124C37081E090E002C0880F991F8D
:10089000CA95E2F79C6818C08C2F8F710E94630282
:1008A00095E0D695C7959A95E1F7CF70D0E0DC2F0B
:1008B000CC27282F30E084FF05C084E0220F331FAF
:1008C0008A95E1F7D069CE01822B932B13C08C2F30
:1008D0008F710E9463028F71C82FD0E09C2F8827F0
:1008E00009C0CE0199270E94B20204C080E090E0C6
:1008F00001C0CE01DF91CF911F910895A0E0B0E03B
:10090000E4E8F4E00C9401147C01009100021091E1
:1009100001028091FE019091FF01082B192BCFE07D
:10092000D0E0CC24C394D12CC6010C2E02C0880F79
:10093000991F0A94E2F780239123892B21F42197B0
:1009400098F7B12C09C0BC2EB7018C2F0E944E0322
:100950000E946B03019799F38B2DCDB7DEB7E9E0C9
:100960000C941D14953078F58E3068F5E82FF0E082
:100970008EE0989FE00DF11D11249E2F977083E06B
:10098000F695E7958A95E1F7EE0FFF1FEE0FFF1F33
:10099000E25AFE4F40E050E080E0219130E0092E25
:1009A00002C0369527950A94E2F721703327042E6A
:1009B00001C0220F0A94EAF7822B4F5F5F4F443049
:1009C000510559F7089580E00895953088F58E30E7
:1009D00078F5E82FF0E08EE0989FE00DF11D1124EE
:1009E0008E2F877051E001C0550F8A95EAF783E09A
:1009F000F695E7958A95E1F7EE0FFF1FEE0FFF1FC3
:100A0000E25AFE4F20E030E070E04081CB01022E40
:100A100002C0969587950A94E2F7817081958427A4
:100A20008523842781932F5F3F4F2430310569F759
:100A300008959093010280930002089521E030E030
:100A400002C0220F331F8A95E2F7209530958091DE
:100A5000000290910102822393230E9419050895B8
:100A600021E030E002C0220F331F8A95E2F7809127
:100A7000000290910102822B932B0E941905089588
:100A8000A6E0B0E0E6E4F5E00C94071449835A834D
:100A900049815A81992361F0222351F0CA010E94B1
:100AA0007E04182F682F89819A810E94E50404C072
:100AB000CA010E94B204182F69817A81812F0E9495
:100AC0004E032696E3E00C942314209100019091AC
:100AD000B5018091A201892B222341F120912102AD
:100AE00027FF24C08093D50140E250E062E871E026
:100AF00084ED91E00E942F14892BC9F180E2E4ED8E
:100B0000F1E0A2E8B1E001900D928A95E1F7E09161
:100B10001D02F0911E02309751F186E08093D401BE
:100B20000480F581E02D84ED91E020C08093CC011C
:100B300048E050E063EA71E08CEC91E00E942F14F1
:100B4000892BA9F088E0ECECF1E0A3EAB1E0019098
:100B50000D928A95E1F7E0911D02F0911E02309707
:100B600031F00280F381E02D8CEC91E0099508953D
:100B7000882371F19CEF980F913A18F40E9471103C
:100B800014C090E2980F983098F4877021E030E01C
:100B9000A90102C0440F551F8A95E2F7CA0180954A
:100BA0009091B50189238093B5010E946505089550
:100BB0009BE5980F933028F480E090E00E94FB10B2
:100BC0000895885A8B3120F480E090E00E94D6107E
:100BD0000895CF93882309F465C0C82F8CEF8C0F3C
:100BE000813AA0F5809100018823E1F080912102F3
:100BF00087FF18C0EC2FE695E695E695F0E0EC52FD
:100C0000FE4F8281282F30E04C2F477081E090E02A
:100C100002C0880F991F4A95E2F782239323892BFC
:100C200061F410C0EEECF1E084ED91E02191C21787
:100C300021F08E179F07D1F705C08C2F0E947110ED
:100C40000E9465058C2F0E949F1010C080E28C0FBF
:100C5000883078F4C77081E090E001C0880FCA95B1
:100C6000EAF79091B501892B8093B5010E94650543
:100C700019C0EBE5EC0FE33040F4F0E0E55FFE4F28
:100C8000808190E00E94FB100DC0C85ACB3150F417
:100C9000EC2FF0E0EE0FFF1FE25FFE4F80819181AD
:100CA0000E94D610CF910895F894E82FE295EF7046
:100CB000F0E031A1282F2F7081E090E001C0880F73
:100CC0002A95EAF7982F9095932391A392A1892BC7
:100CD00082A378940895AAE0B0E0E1E7F6E00C94EE
:100CE000FC13AE014F5F5F4F7A018AE0FA01119267
:100CF0008A95E9F704E411E06A0199E4692E91E02C
:100D0000792E88248394912CF80180818F3F09F4F7
:100D100047C0F894E82FE295EF70F0E021A18F70C2
:100D2000A40102C0440F551F8A95E2F7CA01922F11
:100D3000982B91A392A18095892382A3789400C0D7
:100D4000E9E4F1E021E030E0A12CB12C41914F3FEA
:100D500089F0A42FA295AF70B0E090968C9190E0AE
:100D60004F7002C0959587954A95E2F780FD02C0C5
:100D7000C90102C080E090E0A82AB92A220F331FDF
:100D800051E0E735F50711F7F80180818F3F11F049
:100D90000E945406F0EAFA95F1F7F601B182A082BA
:100DA0000F5F1F4FF2E0CF0ED11C6016710609F0E5
:100DB000ABCF4AE050E0B70184EF91E00E942F14DE
:100DC000892B91F08AE0F701A4EFB1E001900D9238
:100DD0008A95E1F781E08093AF010E943C109093E7
:100DE000AE018093AD010CC08091AF01882341F02A
:100DF0008091AD019091AE010E942D10059710F4E5
:100E000080E018C04AE050E064EF71E082E092E0D8
:100E10000E942F14892B59F08AE0E4EFF1E0A2E060
:100E2000B2E001900D928A95E1F781E001C080E087
:100E30001092AF012A96EEE00C9418149093FF01E3
:100E40008093FE01089580910001882341F08091F4
:100E5000210287FF04C08EE1E6EDF1E003C086E0E9
:100E6000EEECF1E0DF011D928A95E9F780E090E079
:100E70000E94FB1080E090E00E94D6101092A20128
:100E80000E94650508951092B5010E9423072FEF77
:100E900084E39CE0215080409040E1F700C00000D6
:100EA0009CE088E10FB6F894A895809360000FBE8F
:100EB00090936000FFCF882341F080959091B50119
:100EC00089238093B5010E9465050895882339F030
:100ED0009091B501892B8093B5010E946505089515
:100EE0001F93CF93DF93182FEB010E94E905209702
:100EF00041F08FE99FE00197F1F700C000002197D2
:100F0000F6CF812F0E94B805DF91CF911F910895F0
:100F100081FD02C02A9A08952A980895ACE0B0E0B5
:100F2000E4E9F7E00C9404144F83588769877A87C3
:100F30008B879C8791111092A20186E0FE01379663
:100F4000DE01119601900D928A95E1F78D8188233B
:100F500041F021E049815A816B817C819E810E9410
:100F600040058D81882309F488C221E049815A8196
:100F70006B817C819E810E94400581342EE792071F
:100F800089F182343EE79307C9F180344EE7940734
:100F900009F03FC08E81882369F081E080935C0175
:100FA0008B819C8190935B0180935A0182E00E9427
:100FB000300563C282E00E941E0580915C01882397
:100FC00071F080915A0190915B010E942D10843F35
:100FD000914028F460E070E089E20E94700710926E
:100FE0005C014BC28E818823D1F3809100029091E5
:100FF000010222E082270E941905F1CF8E81882309
:1010000021F083E00E943005EACF83E00E941E05B4
:10101000E6CF10925C01FC01E851FC47E730F10596
:1010200090F5EA5AFF4F0C94F21306E221EE41EEDE
:101030006AE17CE723C007E225EE45EE6BE17CE741
:101040001DC006E221EE40EE68E17CE717C007E232
:1010500025EE44EE69E17CE711C006E221EE42EEA6
:101060006CE17CE70BC007E225EE46EE6DE17CE724
:1010700005C008E221E045EE6EE17CE7CE01019675
:101080000E942D11FAC12E81222309F47AC01092F8
:101090001A0286313CE7930771F58091B501982FCC
:1010A0009A7A382F347409F090E0382F317109F0B2
:1010B00090E0887861F4222391F081E0911101C0E1
:1010C00080E080935D01992331F085E305C0222300
:1010D00031F010925D0189E20E949F1009C0809159
:1010E0005D01882311F085E301C089E20E9471103F
:1010F0000E946505C2C181304CE7940709F43FC0E6
:1011000083305CE79507A9F181159C4709F03DC044
:101110001092B5010E9423074FEF54E38CE0415039
:1011200050408040E1F700C0000081E08093E00083
:1011300080E28093D8001092C9008FE19EE401976D
:10114000F1F700C0000087E090EBDC0180932402FF
:1011500090932502A0932602B09327029CE088E199
:101160000FB6F894A895809360000FBE909360002E
:10117000FFCF6FEF7FEF80E090E00E94DC130E94D2
:10118000430786319C4709F488CF09811A812223BD
:1011900049F0C8010E947E04F82E682FC8010E9401
:1011A000E50404C0C8010E94B204F82EB8018F2DD6
:1011B0000E944E030E946B03082FF82E8E81E92EA9
:1011C000E2942FE0E2224E2D50E04C30510508F021
:1011D00043C1FA01E35AFF4F0C94F213292F207FE9
:1011E0009F70192F222311F01295107F8823B9F0D8
:1011F000112309F41FC180E2800F883010F0F11034
:1012000006C09091B501192B1093B50105C09091BE
:10121000A201192B1093A2010E9465050BC1802F1A
:101220000E94B805112309F417C1005E109508301B
:1012300010F0F11006C09091B50119231093B5017B
:1012400005C09091A20119231093A2010E94650587
:1012500003C1292F26952695237019F0213059F0C6
:10126000FBC0882319F0802F937002C080E090E0CB
:101270000E94FB10F9C0882319F0802F937002C0E0
:1012800080E090E00E94D610EFC0292F237009F073
:1012900046C08111E5C0802F829586958770880FA2
:1012A000880F602F6F7070E0082E02C0660F771FE6
:1012B0000A94E2F704FF0BC04FE050E002C0440F75
:1012C000551F8A95E2F79A012095309502C020E0DB
:1012D00030E09695969593709230A9F0F0F4409195
:1012E000FE015091FF01913031F0CB01822B932B05
:1012F0008423952305C0CB01842B952B822B932B24
:101300000E941E07ADC0CB01822B932B2091FE01C2
:101310003091FF0182279327F3CFCB01EFCF8823B2
:1013200019F0892F817002C0822F8695882309F4D5
:1013300097C0802F829586958770880F880F602FC1
:101340006F7070E0082E02C0660F771F0A94E2F7F4
:1013500004FF0BC04FE050E002C0440F551F8A95B8
:10136000E2F79A012095309502C020E030E0969592
:1013700096959370923089F0D0F44091000250918C
:101380000102913031F0CB01822B932B84239523E2
:1013900011C0CB01842B952B0BC0CB01822B932B3F
:1013A00020910002309101028227932703C0CB01D4
:1013B000822B932B0E94190553C0192F1F7088236D
:1013C00039F0812F0E943005802F0E94660748C0A7
:1013D000802F0E945B07812F0E941E0541C032EFC3
:1013E000031769F043EF041789F051EF051320C08C
:1013F000882339F0892F8F710E9430052DC08823F2
:10140000C9F3892F8F710E941E0526C0882359F0C9
:101410009F7121E030E0A90102C0440F551F9A9549
:10142000E2F7CA0102C080E090E00E94190514C0F2
:10143000882321F0802F0E94E9050EC0093349F46A
:101440005FEF87EE93E0515080409040E1F700C09D
:101450000000802F0E94B80588EF8E0D823020F4A6
:101460000E9420110E94880720E049815A816B81E7
:101470007C818D819E810E9440052C96E6E00C9433
:101480002014A6E0B0E0E7E4FAE00C9406140E9411
:101490003C108C018091AB019091AC0108171907A9
:1014A00081F019821A820E943C10682F49815A816A
:1014B000792F80E090E00E948E071093AC0100939A
:1014C000AB012696E4E00C9422142091E4003091C4
:1014D000E50095E64091EC00842F817040FF23C029
:1014E0008091E80080FD1DC08091C201882399F0A1
:1014F000853099F08091EB0085FD11C04091E400AA
:101500005091E5002417350729F3915011F09A0105
:10151000E1CF84E0089582E0089583E0089581E0BA
:10152000089580E008954091E80042FFDDCF0895DE
:101530008091C40187FF11C08091E80082FD05C041
:101540008091C2018111F8CF11C08091E8008B77A2
:101550000BC08091C201882349F08091E80080FF90
:10156000F8CF8091E8008E778093E8000895982F57
:10157000973068F59093E900981739F07091EC0076
:101580002091ED005091F00003C0242F762F50E001
:1015900021FD02C09F5FECCF3091EB003E7F309386
:1015A000EB003091ED003D7F3093ED003091EB008A
:1015B00031603093EB007093EC002093ED0050937A
:1015C000F0002091EE0027FDE5CF80E008958F70B8
:1015D0008093E90081E008952091CA013091CB0108
:1015E0002617370748F06115710539F42091E80096
:1015F0002E772093E80001C0B901FC0120E06115BD
:10160000710579F18091C2018823F1F18530F1F102
:101610008091E80083FD3CC08091E80082FD2EC0EF
:101620008091E80080FFEBCF2091F3008091F200E1
:1016300090E0922B6115710551F08830910538F4D6
:1016400021912093F100615071090196F3CF21E0BF
:10165000089709F020E08091E8008E778093E800F9
:10166000CECF2111CFCF0AC08091C201882361F073
:10167000853061F08091E80083FD0AC08091E80028
:1016800082FFF2CF80E0089582E0089583E008951C
:1016900081E0089508958091B70108950F931F93F5
:1016A000CF93DF938B01EA019091C201943079F5D9
:1016B0008F708093E9008FEF9091E800815095FD45
:1016C00006C095ED9A95F1F700008111F5CF809154
:1016D000E80085FF1CC00E94650A882361F08091A4
:1016E000E8008E778093E80012C0F80181918F01A5
:1016F0008093F1002197209791F38091E80085FD78
:10170000F4CF8091E8008E778093E800E4CFDF91FA
:10171000CF911F910F91089543E050E0BC0182E00A
:101720000E944E0B089540E250E0BC0182E00E940E
:101730004E0B0895CF93DF93EC0148E050E0BC01DD
:1017400081E00E944E0B88E0FE01A8EBB1E0019021
:101750000D928A95E1F7DF91CF910895AAE2B0E06A
:10176000E4EBFBE00C940714E4ECF1E08CEC91E08A
:101770002091F10021938E179F07D1F78091C50129
:10178000833009F461C030F4813071F0823009F4A3
:101790009DC0B4C08A3009F489C08B3009F46CC094
:1017A000893009F0ABC020C08091C401813A09F0B2
:1017B000A5C08091E800877F8093E8008091C801F0
:1017C0009091C901892B21F468E088EB91E003C076
:1017D00060E080E090E070E00E94EC0A8091E80018
:1017E0008B778093E8008AC08091C401813209F030
:1017F00085C08091C8019091C901029708F07EC010
:101800008091E800877F8093E8008091E80082FD66
:1018100005C08091C2018111F8CF70C02091F30002
:101820008091F20090E0922B029731F48091F100C8
:10183000813011F0863021F48091F1008093B7015E
:101840008091E8008B7756C08091C401813A09F0FD
:1018500055C08091C8019091C901892B09F04EC0F3
:101860008091E800877F8093E8008091E80080FF06
:10187000FCCF8091000139C08091C4018132F1F523
:101880008091C8019091C901892BC1F58091E80030
:10189000877F8093E8000E94980A8091C601809318
:1018A00000011092B5010E94230728C08091C40155
:1018B000813221F58091E800877F8093E8000E94C3
:1018C000980A8091C7018093B60118C08091C40125
:1018D000813AA1F48091E800877F8093E8008091AD
:1018E000E80080FFFCCF8091B6018093F1008091E9
:1018F000E8008E778093E8000E94980A8091E800C3
:1019000083FFCEC18091C4019091C501492F50E061
:101910004A30510508F0C4C1FA01E759FF4F0C9451
:10192000F213803821F0823809F0BAC108C08091E2
:10193000C0019091C101992389F082600FC080910C
:10194000C8018F70873008F0ABC18093E9008091A7
:10195000EB0085FB882780F91092E9009091E80060
:10196000977F9093E8008093F1001092F10065C199
:10197000282F2D7F09F094C1882319F0823061F05F
:101980008FC18091C601813009F08AC1933009F07E
:1019900080E08093C1012EC08091C60181112AC0D0
:1019A0008091C8018F702FEF280F263008F078C182
:1019B0008093E9002091EB0020FF1CC0933021F4BC
:1019C0008091EB00806214C09091EB009061909345
:1019D000EB0021E030E0A90102C0440F551F8A95B9
:1019E000E2F74093EA001092EA008091EB008860F1
:1019F0008093EB001092E9008091E800877F20C17E
:101A000081114EC11091C6011F778091E30080784B
:101A1000812B8093E3008091E800877F8093E8002A
:101A20000E94980A8091E80080FFFCCF8091E3003B
:101A300080688093E300111102C082E001C083E05E
:101A40008093C2012DC18058823008F029C1809155
:101A5000C6019091C7018C3D53E0950779F583E06D
:101A60008A838AE289834FB7F894DE01139620E0D7
:101A70003EE051E2E32FF0E050935700E49120FF65
:101A800003C0E295EF703F5FEF708E2F90E0EA3079
:101A900010F0C79601C0C0968D939D932F5F24319F
:101AA00049F74FBF8091E800877F8093E8006AE2A2
:101AB00070E0CE0101960E94EC0AAEC04091C801D0
:101AC0005091C901292F332723303105A9F068F43B
:101AD0002130310509F4F3C02230310509F0E0C0AE
:101AE0008BE390E0E7ECF3E044C02132310521F1D3
:101AF0002232310571F1D4C0992781309105A1F0CE
:101B000058F0029709F0CCC0E4E1F4E0E4918E2FA4
:101B100090E0E4E1F4E02AC0EAE4F4E0E4918E2FFE
:101B200090E0EAE4F4E022C0EEE2F4E0E4918E2FEB
:101B300090E0EEE2F4E01AC04115510509F4C4C08A
:101B40004130510509F0ACC089E090E0E2EFF3E0EC
:101B500010C04115510509F4BCC04130510509F0D0
:101B60009FC08DE690E0E6E1F3E003C0009709F442
:101B700097C02091E800277F2093E8002091CA01B8
:101B80003091CB018217930708F49C0140E02115A6
:101B9000310589F18091C201882309F43DC0853067
:101BA000D9F18091E80083FD37C08091E80082FD83
:101BB0002FC08091E80080FFEACF4091F300809130
:101BC000F20090E0942B2115310559F088309105F1
:101BD00040F444914093F10031962150310901962F
:101BE000F2CF41E0089709F040E08091E8008E775D
:101BF0008093E800CCCF4111CDCF0AC08091C201C3
:101C0000882351F0853041F08091E80083FD04C0C5
:101C10008091E80082FFF2CF8091E8008B7780937B
:101C2000E8003EC08038E1F58091E800877F80932E
:101C3000E8008091C3018093F1008091E8008E77E5
:101C40008093E8000E94980A2BC0811129C08091DE
:101C5000C6019091C7019927029714F58091E80079
:101C6000877F8093E8001091C6011093C3010E9402
:101C7000980A111106C08091E30087FD02C081E03F
:101C800001C084E08093C20142E061EC81E00E94E7
:101C9000B70A42E261EC82E00E94B70A8091C20179
:101CA0008091E80083FF1AC08091E800877F8093CD
:101CB000E8008091EB0080628093EB000FC082E12E
:101CC00090E0E2E0F4E055CF89E090E0E9EDF3E068
:101CD00050CF84E490E0E3E8F3E04BCFAA96E3E052
:101CE0000C9423141F920F920FB60F9211242F936E
:101CF0003F934F935F936F937F938F939F93AF9394
:101D0000BF93CF93DF93EF93FF93C091E900CF7020
:101D10008091EC00D82FD17080FDD0E81092E900BE
:101D20008091F000877F8093F00078940E94AE0B42
:101D30001092E9008091F00088608093F000CD2B34
:101D4000CF70C093E900FF91EF91DF91CF91BF91E8
:101D5000AF919F918F917F916F915F914F913F9143
:101D60002F910F900FBE0F901F901895E8EDF0E0A7
:101D700080818E7F80831092E2001092DA001092B0
:101D8000E100A0EEB0E08C9181608C9380818F7730
:101D9000808319BCA7EDB0E08C918E7F8C938081FD
:101DA0008F7E80831092B4010895A0E0B0E0EBED47
:101DB000FEE00C940214C8EDD0E088818F7E888309
:101DC000E7EDF0E080818160808384E082BF81E084
:101DD0008093B40188818E7F888302EE10E0F80141
:101DE00010821092DA0081EEC82ED12CF6011082FA
:101DF00088818F77888388818068888388818F7DB8
:101E0000888319BC1092C2011092C3011092C101C3
:101E10001092C00190EEE92EF12CF70180818B7FAA
:101E2000808388818160888342E060E080E00E9456
:101E3000B70AF60180818E7F8083F80180818160FE
:101E40008083808188608083F70180818E7F80839A
:101E5000888180618883CDB7DEB7E8E00C941E14DA
:101E60001F920F920FB60F9211242F933F934F930F
:101E70005F936F937F938F939F93AF93BF93EF93F2
:101E8000FF938091E10082FF09C08091E20082FF10
:101E900005C08091E1008B7F8093E1008091DA00A2
:101EA00080FF2AC08091D80080FF26C08091DA0090
:101EB0008E7F8093DA008091D90080FF18C080E186
:101EC00089BD82E189BD09B400FEFDCF81E0809328
:101ED000C2018091B40181110FC00E94B60E0E9410
:101EE000D50E8091E20084608093E20005C019BCA9
:101EF0001092C2011092B4018091E10080FF17C0DE
:101F00008091E20080FF13C08091E2008E7F809379
:101F1000E2008091E20080618093E2008091D8002D
:101F200080628093D80019BC85E08093C2018091C3
:101F3000E10084FF30C08091E20084FF2CC080E18A
:101F400089BD82E189BD09B400FEFDCF8091D80032
:101F50008F7D8093D8008091E1008F7E8093E10097
:101F60008091E2008F7E8093E2008091E2008160A8
:101F70008093E2008091C301882311F084E007C0C0
:101F80008091E30087FD02C081E001C083E080937F
:101F9000C2018091C2018091E10083FF27C080913E
:101FA000E20083FF23C08091E100877F8093E100FE
:101FB00082E08093C2011092C3018091E1008E7F84
:101FC0008093E1008091E2008E7F8093E200809117
:101FD000E20080618093E20042E060E080E00E94E5
:101FE000B70A8091F00088608093F000FF91EF9134
:101FF000BF91AF919F918F917F916F915F914F9121
:102000003F912F910F900FBE0F901F9018957894CD
:102010001F920F920FB60F9211248F939F93AF933D
:10202000BF938091B0019091B101A091B201B091A4
:10203000B3010196A11DB11D8093B0019093B10130
:10204000A093B201B093B301BF91AF919F918F91D3
:102050000F900FBE0F901F9018959C014FB7F894EA
:102060008091B0019091B101A091B201B091B30102
:102070004FBF821B930B08952FB7F8948091B00146
:102080009091B101A091B201B091B3012FBF089519
:102090001F920F920FB60F9211248F939F93AF93BD
:1020A000BF9380912302811113C08091B001909160
:1020B000B101A091B201B091B3014196A11DB11D32
:1020C0008093B0019093B101A093B201B093B3019A
:1020D000BF91AF919F918F910F900FBE0F901F9066
:1020E000189590910001992321F09091210297FD7C
:1020F00003C0ECECF1E01DC0E82FE695E695E6950F
:10210000EE31E0F4F0E0EC52FE4F877021E030E079
:10211000A90102C0440F551F8A95E2F7CA018095B4
:102120009281892382830895319651E0E23DF5073B
:1021300029F092818913F8CF1282F6CF08959091F9
:1021400000019923D1F09091210297FF16C0E82F4A
:10215000E695E695E695EE3140F5F0E0EC52FE4F5F
:10216000877021E030E0A90102C0440F551F8A9515
:10217000E2F7CA019281892B16C0AEECB1E0EFEF15
:1021800090E02D91821789F0EF3F19F4211101C0E1
:10219000E92F9F5F9630A9F7EF3F39F00E2E000C24
:1021A000FF0BE453FE4F828308950895A3E0B0E04F
:1021B000ECEDF0E10C94081420911F023091200204
:1021C00028173907A1F09093200280931F02E09115
:1021D0001D02F0911E02309751F024E029839B8369
:1021E0008A830084F185E02DCE010196099523961E
:1021F000E2E00C942414A3E0B0E0E1E0F1E10C94FF
:10220000081420911B0230911C0228173907A1F0F5
:1022100090931C0280931B02E0911D02F0911E021C
:10222000309751F023E029839B838A830084F185D2
:10223000E02DCE01019609952396E2E00C9424143A
:10224000E0911D02F0911E02309729F00190F0817B
:10225000E02D0995089580E008950F931F93CF9383
:10226000DF93C42FD22FFC0185818823B1F04093E6
:102270001A020E943C10909319028093180280E287
:102280008C0F883008F068C0C77081E001C0880FEB
:10229000CA95EAF70E9466075FC080911A02481348
:1022A0003DC080911802909119020E942D10883C27
:1022B0009105A0F510E21D0FCD17E9F080E28C0F1B
:1022C000883040F4C77081E001C0880FCA95EAF7F2
:1022D0000E945B07183078F581E09D2F977001C050
:1022E000880F9A95EAF70E946607093351F560E571
:1022F00070E089E329C0093319F460E570E002C099
:1023000060E070E0802F0E947007183028F5D770C9
:1023100081E001C0880FDA95EAF70AC080E28C0FED
:102320008830D0F4C77081E001C0880FCA95EAF701
:102330000E945B0711C0093351F460E570E089E346
:1023400009C060E070E0802F0E947007E0CF60E07D
:1023500070E0802F0E947007DF91CF911F910F9145
:102360000895A8E0B0E0E7EBF1E10C94F81385B72D
:10237000806885BF85B7806885BF84B7877F84BF45
:102380000FB6F894A89580916000886180936000F2
:10239000109260000FBE90E080E80FB6F894809332
:1023A0006100909361000FBE81E692E09093590125
:1023B000809358010E94B60E0E94D50E8091E200D3
:1023C00084608093E20078948091C2018823A1F018
:1023D0001091E9001F709091EC00892F817090FDA1
:1023E00080E8182B1092E9008091E80083FD0E949C
:1023F000AE0B1F701093E90082E084BD93E095BDA1
:102400009AEF97BD80936E0004E411E0D8018D919E
:102410008D018F3F11F00E945406B1E009341B0773
:10242000A9F709E411E0F80181918F018F3F11F0C4
:102430000E945406F1E007351F07A9F78AE0E2E0A1
:10244000F2E0DF01282F1D922A95E9F7E4EFF1E091
:10245000DF011D928A95E9F780E090E00E94A813C1
:10246000863E9E4F09F466C066EE7EEF80E090E007
:102470000E94DC1360E082E090E00E94BE1381E0E5
:1024800090E09093FF018093FE0161E083E090E093
:102490000E94BE1360E074E184E090E00E94DC13CF
:1024A00060E086E090E00E94BE1360E087E090E08C
:1024B0000E94BE1340E050E0BA0188E090E00E9424
:1024C000D01360E084E290E00E94BE1360E087E1F8
:1024D00090E00E94BE1360E08CE090E00E94BE138A
:1024E00060E08DE090E00E94BE1319821A821B8288
:1024F0001C821D821E821F82188648E050E068E11F
:1025000070E0CE0101960E94AE1340E050E0BA01A7
:1025100080E290E00E94D01340E050E0BA018FE0EA
:1025200090E00E94D01340E050E0BA0183E190E0D7
:102530000E94D01382E090E00E94A01380930C02CE
:1025400084E090E00E94A8139093220280932102DD
:1025500083E090E00E94A01390E00E941E07229A60
:102560002A9A81E091E090931E0280931D0238E147
:10257000432E512C4CE0642E42E0742E8091C20117
:10258000853009F049C012E18091C201853009F01F
:102590003BC08091C201843029F180E00E9488070D
:1025A00010922302E0E40FB6F894A89540926000E0
:1025B0000FBEE093600083B7817F846083BF83B7E1
:1025C000816083BF7894889583B78E7F83BF0FB671
:1025D000F894A895809160008861809360001092C3
:1025E00060000FBE8091C101882309F4CDCF0E9405
:1025F0006B06E2E0F2E081919191892B09F087C0AE
:102600006E167F06C1F7C0CF1092B5010E94230756
:102610000E9420110E9488070E946B060DE012E0C4
:1026200022E0822E22E0922E27E132E0D401F8014E
:10263000419151918D919D91842795272E173F07A8
:1026400019F0892BA9F305C0892B19F40E94410ABE
:1026500047C0312CD401AD90BD904D01F801C08030
:10266000D180CA24DB24C114D10449F1212CEE24E9
:10267000E394F12CC7018C219D21892BB9F029828B
:102680003A820E943C109C838B83F1E0FD8391E0B1
:1026900097012A213B21232B09F490E09E83498155
:1026A0005A816B817C818D810E948E072394EE0C70
:1026B000FF1C2EE02212DECFD801AD92BC923394E3
:1026C0000E5F1F4FB5E03B12C5CF8FB7F894409116
:1026D000B0015091B1016091B2017091B3018FBF0F
:1026E0000E94201190911702891709F447CF809317
:1026F00017029FB7F8944091B0015091B1016091D9
:10270000B2017091B3019FBF0E94880737CFE0E10B
:10271000E9BD19BD09B400FEFDCF8091D8008F7DC1
:102720008093D8008091E00082608093E0008091E7
:10273000E00081FDFCCF1092B5010E94230724CF59
:10274000F999FECF92BD81BDF89A992780B5089579
:10275000A8E1B0E042E050E00C94E413DC01A40FE7
:10276000B51F4150504048F0CB01840F951F2E916A
:102770000E94BF1341505040D0F70895262FF99979
:10278000FECF92BD81BDF89A019700B4021639F0D0
:102790001FBA20BD0FB6F894FA9AF99A0FBE0895A1
:1027A0000396272F0E94BF130E94BE13252F0E945D
:1027B000BF13242F0C94BF130196272F0E94BF1321
:1027C0000C94BE13DC01CB01FC01F999FECF06C0CD
:1027D000F2BDE1BDF89A319600B40D9241505040DF
:1027E000B8F70895EE0FFF1F0590F491E02D0994BE
:1027F0002F923F924F925F926F927F928F929F9211
:10280000AF92BF92CF92DF92EF92FF920F931F93FE
:10281000CF93DF93CDB7DEB7CA1BDB0B0FB6F894AF
:10282000DEBF0FBECDBF09942A88398848885F84EF
:102830006E847D848C849B84AA84B984C884DF8060
:10284000EE80FD800C811B81AA81B981CE0FD11D44
:102850000FB6F894DEBF0FBECDBFED010895FB01AA
:10286000DC0104C08D910190801921F44150504049
:0C287000C8F7881B990B0895F894FFCF5F
:10287C00014B0B9A0B930B4A0B8C0B818283E2005E
:10288C00E900EA00B500B600B700CD008301CC002A
:10289C008A019201940121022302240225022602BC
:1028AC0027022A02B300B4006F0070009F01CB0115
:1028BC009F02A0029091929395F0F1C667663794AF
:0828CC003130353497963300DA
:00000001FF
